{
  "contractName": "storePolybagWeight",
  "abi": [
    {
      "constant": true,
      "inputs": [
        {
          "name": "",
          "type": "uint256"
        }
      ],
      "name": "polybagData",
      "outputs": [
        {
          "name": "",
          "type": "bytes32"
        }
      ],
      "payable": false,
      "stateMutability": "view",
      "type": "function"
    },
    {
      "constant": true,
      "inputs": [],
      "name": "admin",
      "outputs": [
        {
          "name": "",
          "type": "address"
        }
      ],
      "payable": false,
      "stateMutability": "view",
      "type": "function"
    },
    {
      "inputs": [],
      "payable": false,
      "stateMutability": "nonpayable",
      "type": "constructor"
    },
    {
      "constant": false,
      "inputs": [
        {
          "name": "polybagId",
          "type": "uint256"
        },
        {
          "name": "polybagWeight",
          "type": "bytes32"
        }
      ],
      "name": "saveData",
      "outputs": [
        {
          "name": "",
          "type": "bool"
        }
      ],
      "payable": false,
      "stateMutability": "nonpayable",
      "type": "function"
    },
    {
      "constant": false,
      "inputs": [
        {
          "name": "polybagId",
          "type": "uint256"
        }
      ],
      "name": "getData",
      "outputs": [
        {
          "name": "",
          "type": "bytes32"
        }
      ],
      "payable": false,
      "stateMutability": "nonpayable",
      "type": "function"
    }
  ],
  "bytecode": "0x608060405234801561001057600080fd5b50336000806101000a81548173ffffffffffffffffffffffffffffffffffffffff021916908373ffffffffffffffffffffffffffffffffffffffff160217905550610219806100606000396000f3fe608060405234801561001057600080fd5b506004361061004c5760003560e01c80630178fe3f146100515780638803185614610093578063c4cf30a1146100e3578063f851a44014610125575b600080fd5b61007d6004803603602081101561006757600080fd5b810190808035906020019092919050505061016f565b6040518082815260200191505060405180910390f35b6100c9600480360360408110156100a957600080fd5b81019080803590602001909291908035906020019092919050505061018c565b604051808215151515815260200191505060405180910390f35b61010f600480360360208110156100f957600080fd5b81019080803590602001909291905050506101b0565b6040518082815260200191505060405180910390f35b61012d6101c8565b604051808273ffffffffffffffffffffffffffffffffffffffff1673ffffffffffffffffffffffffffffffffffffffff16815260200191505060405180910390f35b600060016000838152602001908152602001600020549050919050565b60008160016000858152602001908152602001600020819055506001905092915050565b60016020528060005260406000206000915090505481565b6000809054906101000a900473ffffffffffffffffffffffffffffffffffffffff168156fea165627a7a72305820c911efd643e5a5e57338f093508af4ad5d17d0f88739e28589289afcf2f596ff0029",
  "source": "pragma solidity >=0.4.23;\n\ncontract storePolybagWeight {\n    address public admin;\n    mapping(uint256 => bytes32) public polybagData;\n\n    constructor() public {\n        admin = msg.sender;\n    }\n\n    function saveData (uint256 polybagId, bytes32 polybagWeight) public returns (bool){\n        polybagData[polybagId] = polybagWeight;\n        return true;\n    }\n\n    function getData (uint256 polybagId) public returns (bytes32){\n        return polybagData[polybagId];\n    }\n\n}",
  "sourcePath": "/home/teslash21/CS/Github/BinIT-API/src/blockchain/contracts/weight.contract.sol",
  "compiler": {
    "name": "solc",
    "version": "0.5.8+commit.23d335f2.Emscripten.clang"
  },
  "schemaVersion": "3.0.16",
  "updatedAt": "2019-09-27T18:29:29.422Z",
  "devdoc": {
    "methods": {}
  },
  "userdoc": {
    "methods": {}
  }
}